:10206200AF83E582900000F0EFA3F0900000E0FE65
:10207200A3E0FF8E048F051EBEFF011F900000EE3D
:10208200F0EFA3F0EC4D60030080E8900000EEF06A
:10209200EFA3F022E582900002F0E04480F5820294
:1020A20020A4E582900003F0C29290000112206207
:1020B200900003E0F580C290C29190012C12206240
:1020C200D29290012C122062C29222E582900004E8
:1020D200F0C292900001122062900004E0F580D2DA
:1020E20090C29190012C122062D29290012C122067
:1020F20062C292229000641220627582301220A481
:1021020090000A1220627582301220A490000A12F6
:10211200206275820F1220A490000A12206275823A
:10212200011220A49000141220627582061220A4CB
:1021320090000A022062AFF0AE83E582900005F0C3
:10214200EEA3F0EFA3F0900005E0FDA3E0FEA3E014
:10215200FF8D828E838FF0122AE0FC60230DBD007A
:10216200010E900005EDF0EEA3F0EFA3F08C82C01B
:1021720007C006C0051220CDD005D006D00780D1F9
:0C218200900005EDF0EEA3F0EFA3F022BA
:03200000022006B5
:03205F0002200359
:0320030002218E29
:10218E001220F61225E012247A80FE900024E4F04C
:10219E00A3F043890143A882758C4B758AFDC28DCD
:1021AE00D28C22900024E0FEA3E0FFBE020ABF0004
:1021BE0007900008E02401F0900008E0FFBF0A0C31
:1021CE00900008E4F090000AE02401F090000AE08C
:1021DE00FFBF0A0C90000AE4F0900009E02401F021
:1021EE00900009E0FFBF060C900009E4F090000C8F
:1021FE00E02401F090000CE0FFBF0A0C90000CE40C
:10220E00F090000BE02401F090000BE0FFBF0605FC
:10221E0090000BE4F07582901220A490000BE04425
:10222E0030F5821220CD90000CE04430F582122061
:10223E00CD75823A1220CD900009E04430F582121D
:10224E0020CD90000AE04430F5821220CD75822E0A
:10225E001220CD900008E04430F5820220CD90008F
:10226E0008E4F090000BF090000CF0900009F09054
:10227E00000AF0900024F0A3F00221B1C020C0E0CB
:10228E00C0F0C082C083C007C006C005C004C00332
:10229E00C002C001C000C0D075D000758C4B758ACD
:1022AE00FBC28DD28C9000247402F0E4A3F0B290A5
:1022BE001221B1900024E4F0A3F0D0D0D000D001D0
:1022CE00D002D003D004D005D006D007D083D08260
:0722DE00D0F0D0E0D0203267
:022B4100000092
:1022E5007582021220A47582401220A47D267E00EC
:1022F5007F007B007C00C3EB9410EC6480948050DD
:102305005D8D828E838FF0122AE0A3122AE0F5827A
:10231500C007C006C005C004C0031220CDD003D03D
:1023250004D005D006D0078D828E838FF0122AE067
:10233500FA74022DFDE43EFE8A82C007C006C00580
:10234500C004C0031220CD900001122062D003D03A
:1023550004D005D006D0070BBB009B0C80982275D6
:1023650082021220A47582501220A47D467E007F31
:10237500007B007C00C3EB9410EC64809480505D7E
:102385008D828E838FF0122AE0A3122AE0F582C097
:1023950007C006C005C004C0031220CDD003D00479
:1023A500D005D006D0078D828E838FF0122AE0FAF1
:1023B50074022DFDE43EFE8A82C007C006C005C03A
:1023C50004C0031220CD900001122062D003D00476
:1023D500D005D006D0070BBB009B0C8098227582D8
:1023E500021220A47582601220A47D667E007F0003
:1023F5007B007C00C3EB9410EC64809480505D8D71
:10240500828E838FF0122AE0A3122AE0F582C0079C
:10241500C006C005C004C0031220CDD003D004D02F
:1024250005D006D0078D828E838FF0122AE0FA74CC
:10243500022DFDE43EFE8A82C007C006C005C00429
:10244500C0031220CD900001122062D003D004D029
:1024550005D006D0070BBB009B0C80982275820027
:102465001220CD7582020220CD7582001220CD7515
:1024750082040220CD758296122096122462900065
:10248500187401F0E4A3F09000177404F0902B0485
:10249500E493FF900016F08F82122096122A3BAE2D
:1024A50082AF83BE0D028016BE6102805ABE6403F0
:1024B50002258ABE7303022565BE77E080271226B2
:1024C5009A122727AE82AF83BE0105BF0002800E98
:1024D500BE0205BF00028006BE09C1BF00BE8E82D6
:1024E5008F831229A5900017E0FFBF030040ADEFD1
:1024F50024FD900017F0E0902B0093FF900016F05C
:102505008F821220968095900017E0FF600DEF24D2
:10251500FD4008EF14900017F08030900017E0FFA1
:1025250024FC500DEF24FA4008EF14900017F080BA
:102535001A900017E0FF24F940030224A1EF24F7C5
:1025450050030224A1EF14900017F0900017E090BB
:102555002B0093FF900016F08F821220960224A183
:10256500900017E0FF24FA50030224A1900017748D
:10257500032FF0E0902B0093FF900016F08F82124E
:1025850020960224A1900017E0FFBF0200500A8F99
:1025950006900017EE04F0802DBF0300400DBF0527
:1025A500005008900017EF04F0801B900017E0FF23
:1025B500BF060050030224A1BF080040030224A166
:1025C500900017EF04F0900017E0902B0093FF9018
:1025D5000016F08F821220960224A11222E5122302
:1025E500E3122364758281122096902B0975F08081
:1025F5001221387582921220967582001220CD75AF
:1026050082001220CD7582931220967582001220C9
:10261500CD7582001220CD758294122096758200A8
:102625001220CD7582001220CD75828A12209675F2
:1026350082001220CD7582001220CD75828B12206A
:10264500967582001220CD7582001220CD75828C80
:102655001220967582001220CD7582001220CD754C
:10266500829A1220967582001220CD758200122062
:10267500CD75829B1220967582001220CD75820041
:102685001220CD75829C1220967582001220CD7580
:1026950082000220CD900017E0240DFFE43400FEF7
:1026A5008F828E83E0600490FFFF22900018E0FE89
:1026B500A3E0FFBE0121BF001E122462900017E0B7
:1026C500FD240DF582E43400F5837401F0900018C3
:1026D50004F0E4A3F08022BE021FBF001C12246E8A
:1026E500900017E0FF240DF582E43400F5837402B1
:1026F500F090001814F0E4A3F075829612209690DD
:102705000018E0FEA3E0FFBE0108BF000512246229
:10271500800312246E900016E0F582122096900038
:1027250001227E007F00C3EE9403EF648094804015
:10273500030227FE8E048F05E4FAFBF8F9F508F588
:1027450009C3E5089403E50964809480506EC002CE
:10275500C0038C0AE50875F003A4F50B250AFB33C5
:1027650095E0FAEB240DF582EA3400F583E0FBBB36
:1027750001028006D003D002800BD003D00208B836
:10278500003009802DC004C005E50B250AFD3395F1
:10279500E0FCED240DF582EC3400F583E0FDBD028F
:1027A500028006D005D0048009D005D0040ABA00FD
:1027B500010B0508E4B5088905098085E4B803041B
:1027C500B9000104FD7006BA0327BB0024ED600BB8
:1027D50090001A7401F0E4A3F0800990001A7402C5
:1027E500F0E4A3F090001AE0FCA3E0FD8C828D8359
:1027F500220EBE00010F02272B7E007F00C3EE9440
:1028050003EF6480948040030228D88E048F05E48A
:10281500FAFBF8F9F508F509C3E5089403E5096439
:102825008094805071C002C0038C03EB75F003A443
:10283500F50BE508F50A250BFB3395E0FAEB240DBE
:10284500F582EA3400F583E0FBBB01028006D00384
:10285500D002800BD003D00208B8003009802DC00B
:1028650004C005E50A250BFD3395E0FCED240DF5C7
:1028750082EC3400F583E0FDBD02028006D005D070
:10288500048009D005D0040ABA00010B0508E4B597
:10289500088605098082E4B80304B9000104FD70C7
:1028A50006BA0327BB0024ED600B90001A7401F0F3
:1028B500E4A3F0800990001A7402F0E4A3F09000FC
:1028C5001AE0FCA3E0FD8C828D83220EBE00010F71
:1028D50002280290000DE0FFBF0112900011E0FEFA
:1028E500BE010A900015E0FEBE0102801890000F9F
:1028F500E0FEBE0114900011E0FDBD010C90001337
:10290500E0FDBD010490000122BF0212900011E01C
:10291500FFBF020A900015E0FFBF02028013BE024E
:1029250014900011E0FFBF020C900013E0FFBF02FE
:1029350004900002227E007F007C007D00C3EC94A1
:1029450009ED64809480501BEC240DFAED3400FBF6
:102955008A828B83E060050EBE00010F0CBC00DD92
:102965000D80DABE0908BF00058E828F8322900094
:1029750000227582011220A47E007F00C3EE940917
:10298500EF648094805013EE240DF582EF3400F54A
:1029950083E4F00EBE00E50F80E21225E002247A02
:1029A500AF83E58290001CF0EFA3F0758201122041
:1029B500A490001CE0FEA3E0FFBE0914BF00117542
:1029C5008290122096902B1675F080122138803750
:1029D500758292C007C006122096902B2675F0804E
:1029E50012213875828A122096D006D007BE010EB4
:1029F500BF000B902B2F75F0801221388009902B8A
:102A05003875F080122138122A3BAE82AF83BE0D95
:072A1500F6BF00F302297770
:102B00009293948A8B8C9A9B9C205449432D5441D8
:102B1000432D544F4500204954275320412044520F
:102B200041572121200057494E4E45522121005046
:102B30004C41594552203100504C415945522032A8
:012B40000094
:102B4300FFFF0180018001800180018001800180FD
:102B53000180018001800180018001800180FFFFED
:102B6300FFFF018005A009901188218441828181A2
:102B73008181418221841188099005A00180FFFF92
:102B8300FFFF0180E1871188099005A005A005A03A
:102B930005A005A005A009901188E1870180FFFF2A
:102A1C00AF83E58290001EF0EFA3F03099FD90009B
:102A2C001EE0FEA3E0FF8E99C2998E828F83221046
:102A3C00980280FBAE997F008E828F8322AFF0AE1E
:102A4C0083E582900020F0EEA3F0EFA3F09000203D
:102A5C00E0FDA3E0FEA3E0FF7B007C008D828E8373
:102A6C008FF0122AE0FA60360DBD00010E900020A6
:102A7C00EDF0EEA3F0EFA3F08A017A0089828A834D
:102A8C00C007C006C005C004C003122A1CD003D066
:102A9C0004D005D006D0070BBB00C10C80BE900043
:102AAC0020EDF0EEA3F0EFA3F00BBB00010C8B823A
:102ABC008C8322E582900023F0E0FFBF3000400BB6
:102ACC00EF24C64006EF24D0F58222900023E024A8
:042ADC00C9F5822294
:06203500E478FFF6D8FD7F
:102013007962E94400601B7A01902B41782475A012
:1020230000E493F2A308B8000205A0D9F4DAF2752C
:02203300A0FF0C
:10203B007800E84400600A790075A000E4F309D841
:10204B00FC7824E84400600C7901900000E4F0A3D4
:04205B00D8FCD9FADA
:0D200600758120122AFCE582600302200390
:102AE00020F71430F6148883A88220F507E6A8831F
:102AF00075830022E280F7E49322E02275820022AF
:00000001FF
